{
  "contractName": "DappTokenSale",
  "abi": [
    {
      "inputs": [
        {
          "internalType": "contract DappToken",
          "name": "_tokenContract",
          "type": "address"
        },
        {
          "internalType": "uint256",
          "name": "_tokenPrice",
          "type": "uint256"
        }
      ],
      "stateMutability": "nonpayable",
      "type": "constructor"
    },
    {
      "anonymous": false,
      "inputs": [
        {
          "indexed": false,
          "internalType": "address",
          "name": "_buyer",
          "type": "address"
        },
        {
          "indexed": false,
          "internalType": "uint256",
          "name": "_amount",
          "type": "uint256"
        }
      ],
      "name": "Sell",
      "type": "event"
    },
    {
      "inputs": [],
      "name": "tokenContract",
      "outputs": [
        {
          "internalType": "contract DappToken",
          "name": "",
          "type": "address"
        }
      ],
      "stateMutability": "view",
      "type": "function",
      "constant": true
    },
    {
      "inputs": [],
      "name": "tokenPrice",
      "outputs": [
        {
          "internalType": "uint256",
          "name": "",
          "type": "uint256"
        }
      ],
      "stateMutability": "view",
      "type": "function",
      "constant": true
    },
    {
      "inputs": [],
      "name": "tokensSold",
      "outputs": [
        {
          "internalType": "uint256",
          "name": "",
          "type": "uint256"
        }
      ],
      "stateMutability": "view",
      "type": "function",
      "constant": true
    },
    {
      "inputs": [
        {
          "internalType": "uint256",
          "name": "_numberOfTokens",
          "type": "uint256"
        }
      ],
      "name": "buyTokens",
      "outputs": [],
      "stateMutability": "payable",
      "type": "function",
      "payable": true
    },
    {
      "inputs": [],
      "name": "endsale",
      "outputs": [],
      "stateMutability": "nonpayable",
      "type": "function"
    }
  ],
  "bytecode": "0x608060405234801561001057600080fd5b50604051610a66380380610a668339818101604052810190610032919061016c565b336000806101000a81548173ffffffffffffffffffffffffffffffffffffffff021916908373ffffffffffffffffffffffffffffffffffffffff16021790555081600160006101000a81548173ffffffffffffffffffffffffffffffffffffffff021916908373ffffffffffffffffffffffffffffffffffffffff1602179055508060028190555050506101ac565b600080fd5b600073ffffffffffffffffffffffffffffffffffffffff82169050919050565b60006100f1826100c6565b9050919050565b6000610103826100e6565b9050919050565b610113816100f8565b811461011e57600080fd5b50565b6000815190506101308161010a565b92915050565b6000819050919050565b61014981610136565b811461015457600080fd5b50565b60008151905061016681610140565b92915050565b60008060408385031215610183576101826100c1565b5b600061019185828601610121565b92505060206101a285828601610157565b9150509250929050565b6108ab806101bb6000396000f3fe60806040526004361061004a5760003560e01c80633610724e1461004f578063518ab2a81461006b57806355a373d6146100965780637ff9b596146100c1578063c8b335a4146100ec575b600080fd5b61006960048036038101906100649190610539565b610103565b005b34801561007757600080fd5b506100806102c0565b60405161008d9190610575565b60405180910390f35b3480156100a257600080fd5b506100ab6102c6565b6040516100b8919061060f565b60405180910390f35b3480156100cd57600080fd5b506100d66102ec565b6040516100e39190610575565b60405180910390f35b3480156100f857600080fd5b506101016102f2565b005b61010f816002546104c7565b341461011a57600080fd5b80600160009054906101000a900473ffffffffffffffffffffffffffffffffffffffff1673ffffffffffffffffffffffffffffffffffffffff166370a08231306040518263ffffffff1660e01b8152600401610176919061064b565b602060405180830381865afa158015610193573d6000803e3d6000fd5b505050506040513d601f19601f820116820180604052508101906101b7919061067b565b10156101c257600080fd5b600160009054906101000a900473ffffffffffffffffffffffffffffffffffffffff1673ffffffffffffffffffffffffffffffffffffffff1663a9059cbb33836040518363ffffffff1660e01b815260040161021f9291906106a8565b6020604051808303816000875af115801561023e573d6000803e3d6000fd5b505050506040513d601f19601f820116820180604052508101906102629190610709565b61026b57600080fd5b806003600082825461027d9190610765565b925050819055507f5e5e995ce3133561afceaa51a9a154d5db228cd7525d34df5185582c18d3df0933826040516102b59291906106a8565b60405180910390a150565b60035481565b600160009054906101000a900473ffffffffffffffffffffffffffffffffffffffff1681565b60025481565b60008054906101000a900473ffffffffffffffffffffffffffffffffffffffff1673ffffffffffffffffffffffffffffffffffffffff163373ffffffffffffffffffffffffffffffffffffffff161461034a57600080fd5b600160009054906101000a900473ffffffffffffffffffffffffffffffffffffffff1673ffffffffffffffffffffffffffffffffffffffff1663a9059cbb60008054906101000a900473ffffffffffffffffffffffffffffffffffffffff16600160009054906101000a900473ffffffffffffffffffffffffffffffffffffffff1673ffffffffffffffffffffffffffffffffffffffff166370a08231306040518263ffffffff1660e01b8152600401610404919061064b565b602060405180830381865afa158015610421573d6000803e3d6000fd5b505050506040513d601f19601f82011682018060405250810190610445919061067b565b6040518363ffffffff1660e01b81526004016104629291906106a8565b6020604051808303816000875af1158015610481573d6000803e3d6000fd5b505050506040513d601f19601f820116820180604052508101906104a59190610709565b6104ae57600080fd5b3373ffffffffffffffffffffffffffffffffffffffff16ff5b6000808214806104ef5750828283856104e091906107bb565b9250826104ed9190610844565b145b6104f857600080fd5b92915050565b600080fd5b6000819050919050565b61051681610503565b811461052157600080fd5b50565b6000813590506105338161050d565b92915050565b60006020828403121561054f5761054e6104fe565b5b600061055d84828501610524565b91505092915050565b61056f81610503565b82525050565b600060208201905061058a6000830184610566565b92915050565b600073ffffffffffffffffffffffffffffffffffffffff82169050919050565b6000819050919050565b60006105d56105d06105cb84610590565b6105b0565b610590565b9050919050565b60006105e7826105ba565b9050919050565b60006105f9826105dc565b9050919050565b610609816105ee565b82525050565b60006020820190506106246000830184610600565b92915050565b600061063582610590565b9050919050565b6106458161062a565b82525050565b6000602082019050610660600083018461063c565b92915050565b6000815190506106758161050d565b92915050565b600060208284031215610691576106906104fe565b5b600061069f84828501610666565b91505092915050565b60006040820190506106bd600083018561063c565b6106ca6020830184610566565b9392505050565b60008115159050919050565b6106e6816106d1565b81146106f157600080fd5b50565b600081519050610703816106dd565b92915050565b60006020828403121561071f5761071e6104fe565b5b600061072d848285016106f4565b91505092915050565b7f4e487b7100000000000000000000000000000000000000000000000000000000600052601160045260246000fd5b600061077082610503565b915061077b83610503565b9250827fffffffffffffffffffffffffffffffffffffffffffffffffffffffffffffffff038211156107b0576107af610736565b5b828201905092915050565b60006107c682610503565b91506107d183610503565b9250817fffffffffffffffffffffffffffffffffffffffffffffffffffffffffffffffff048311821515161561080a57610809610736565b5b828202905092915050565b7f4e487b7100000000000000000000000000000000000000000000000000000000600052601260045260246000fd5b600061084f82610503565b915061085a83610503565b92508261086a57610869610815565b5b82820490509291505056fea2646970667358221220155a0c5430d088f830a370f80a7f6f0888c1bb3b070ff07de393bfd9bffb232664736f6c634300080b0033",
  "immutableReferences": {},
  "source": "// SPDX-License-Identifier: MIT\r\npragma solidity ^0.8.10;\r\n\r\nimport \"./DappToken.sol\";\r\n\r\ncontract DappTokenSale{\r\n\taddress  admin;\r\n\tDappToken public tokenContract;\r\n\tuint256 public tokenPrice;\r\n\tuint256 public tokensSold;\r\n\r\n\tevent Sell(address _buyer,uint256 _amount);\r\n\r\n\tconstructor(DappToken _tokenContract,uint256 _tokenPrice){\r\n\t\t//Assign an admin\r\n\t\tadmin = msg.sender;\r\n\t\t//Token Contract\r\n\t\ttokenContract = _tokenContract; // access to token contract for buying \r\n\t\t//Token Price\r\n\t\ttokenPrice = _tokenPrice;\r\n\t}\r\n\r\n\t// multiply func\r\n\tfunction multiply(uint x,uint y) internal pure returns(uint z){ // internal cannot be called from oustide the contract, pure doesnt not create any transaction or read or write data to blockchain,accepts and returns the same data type\r\n\t\trequire(y==0 || (z=x*y)/y==x);\r\n\t}\r\n\r\n\tfunction buyTokens(uint256 _numberOfTokens) public payable{  //payble allows someone to send ether in order to buy the tokens\r\n\r\n\t\t//Require that value is equal to tokens\r\n\t\trequire(msg.value == multiply(_numberOfTokens,tokenPrice));\r\n\t\t//require that the contract has enough tokens\r\n\r\n\t\trequire(tokenContract.balanceOf(address(this)) >= _numberOfTokens);     //this refers to the balance of the smart contract in solidity\r\n\t\t//require that transfer is successful\r\n\t\trequire(tokenContract.transfer(msg.sender,_numberOfTokens));  // actual, buy functionality\r\n\r\n\t\t//keep track of tokensSold\r\n\t\ttokensSold += _numberOfTokens;\r\n\t\t//Trigger sell event\r\n\t\temit Sell(msg.sender,_numberOfTokens);\r\n\t}\r\n\r\n\t//Ending Toke DappTokenSale\r\n\tfunction endsale()public{\r\n\t\t//Require admin\r\n\t\trequire(msg.sender==admin);\r\n\t\t//Transfer remaining dapp tokens to admin\r\n\t\trequire(tokenContract.transfer(admin,tokenContract.balanceOf(address(this))));\r\n\t\t//Destroy contract\r\n\t\tselfdestruct(payable(msg.sender));\r\n\t}\r\n}",
  "sourcePath": "D:\\New folder\\token_sale\\contracts\\DappTokenSale.sol",
  "compiler": {
    "name": "solc",
    "version": "0.8.11+commit.d7f03943.Emscripten.clang"
  },
  "schemaVersion": "3.4.3",
  "updatedAt": "2022-01-06T06:33:03.452Z",
  "networkType": "ethereum",
  "devdoc": {
    "kind": "dev",
    "methods": {},
    "version": 1
  },
  "userdoc": {
    "kind": "user",
    "methods": {},
    "version": 1
  }
}